:020000022000DC
:1060000000000120756302005D6302005F6302000F
:106010006163020063630200656302000000000028
:1060200000000000000000000000000067630200A4
:1060300069630200000000006B6302006D630200F0
:10604000E9B902006F63020011C70200A9E902006A
:106050006F6302006F63020031C402006F630200CD
:106060006F6302006F6302006F6302006F630200E0
:106070006F6302006F6302006F6302006F630200D0
:106080006F630200199302006F6302006F630200E6
:106090006F6302006F630200DD3803006F6302006C
:1060A0006F6302006F6302006F6302006F630200A0
:1060B0006F6302006F630200000000000000000038
:1060C0006F6302006F6302006F6302006F63020080
:1060D0006F6302006F6302006F6302000000000044
:1060E00000000000000000000000000000000000B0
:1060F00000000000000000000000000000000000A0
:10610000000000000000000000000000000000008F
:10611000000000000000000000000000000000007F
:10612000000000000000000000000000000000006F
:10613000000000000000000000000000000000005F
:10614000000000000000000000000000000000004F
:10615000000000000000000000000000000000003F
:10616000000000000000000000000000000000002F
:10617000000000000000000000000000000000001F
:10618000000000000000000000000000000000000F
:1061900000000000000000000000000000000000FF
:1061A00000000000000000000000000000000000EF
:1061B00000000000000000000000000000000000DF
:1061C00000000000000000000000000000000000CF
:1061D00000000000000000000000000000000000BF
:1061E00000000000000000000000000000000000AF
:1061F000000000000000000000000000000000009F
:10620000354936480A1A02D0072291438D4634494F
:1062100034480A1A06D00722914381F309880222E2
:1062200082F3148830483149314A00F044F831484B
:106230003149324A00F03FF831483249324A00F0E1
:106240003AF832483249334A00F035F83248334997
:10625000334A00F030F833483349344A00F02BF821
:1062600033483449344A00F026F83448344900228F
:1062700000F02CF833483449002200F027F8334866
:106280003349091A082902DB002202604160314AC1
:1062900090471F481F49884205D00268043003B464
:1062A000904703BCF7E700208646EC46002000211B
:1062B000294A9047FEE7884207D0521A05D0037852
:1062C00001300B700131013AF9D17047884202D098
:1062D00002700130FAE770470000012000E0002062
:1062E00000000120000001204C670300D82A002094
:1062F000C82B0020D0630200D0630200B047030027
:106300004C670300D82A0020D82A0020BC4803008C
:10631000BC480300BC480300BC480300BC48030061
:10632000BC480300BC480300BC4803004B670300A3
:106330003C680300C82B0020C82B0020C82B00207D
:10634000243F0020243F0020243F0020243F002041
:10635000245F00209D630200BD020300FEE7FEE70C
:10636000FEE7FEE7FEE7FEE7FEE7FEE7FEE7FEE705
:1063700000F002B8FFF7FCBF0F484FF00701884359
:1063800085460E4880470E48016841F4700101605F
:10639000BFF34F8FBFF36F8FFFF732BF09480A4932
:1063A0000A4A884207D0521A05D0037801300B7090
:1063B0000131013AF9D170470000012065A80200BF
:1063C00088ED00E0BC480300D82A0020D82A00202D
:1063D00000B585B00190019B002B0AD0074B43F01C
:1063E00001030393019B9B010293039B029898472F
:1063F00000E000BF05B05DF804FB00BFD04803001B
:1064000000B583B00190019B002B0AD04FF47A7045
:10641000FFF7DEFF019B013B0193019B002BF5D1B0
:1064200000E000BF03B05DF804FB08B50AF006F910
:1064300000BF08BD00B589B0039002910192019B95
:10644000002B33D00023079303230693029A079B64
:106450001344019A194600200AF0A0F80590079A03
:10646000059B13440793019A059BD31A0193059B3F
:10647000002B13D10F4B1B7883F00103DBB2002BF1
:1064800013D10120FFF7BCFF069B013B0693069B3F
:10649000002B03D1074B00221A7007E0054B0122A5
:1064A0001A70019B002BD1D100E000BF00BF09B0E2
:1064B0005DF804FBC82B002000B585B00390029165
:1064C000054B00934023054A0299039800F012F807
:1064D00000BF05B05DF804FB35640200CC2B002042
:1064E00082B0019000BF02B0704782B0019000BF3F
:1064F00002B0704700B5A1B00590049103920293D9
:10650000049803F081FE039B1593029B16930023CE
:10651000179300238DF8603000231993229B1A9360
:1065200000231F930FA91F9B0822049803F046FF26
:1065300008231F93119B1293BDF84030ADF84C30E7
:10654000BDF84230ADF84E3000238DF851309DF843
:106550003C3003F00303DBB2012B26D10F9BC3F3C6
:1065600095231C939DF83C30C3F3C203DBB28DF836
:106570005030BDF83C30C3F38313DBB21B931B9B3D
:106580009A0009A91F9B049803F018FF1B9B9B000E
:106590001F9A13441F9312AA09A915AB009313461F
:1065A0001B9A1C9800F0D6FE2FE09DF83C3003F0BB
:1065B0000303DBB2022B28D1BDF83E30C3F38913AD
:1065C0009BB21E939DF83C30C3F3C203DBB28DF83F
:1065D00050301E9B082B28BF08231D9307A91F9B23
:1065E0001D9A049803F0EAFE1F9A1D9B13441F9303
:1065F0001E9A1D9BD31A1E9315AB12AA07A81D99AC
:1066000000F04AFF1E9B002BE3D1049803F00BFE21
:1066100000BF21B05DF804FB82B00190019BDB68F4
:1066200001225A7100BF02B07047000000B583B06C
:106630004FF0FF330193FFF7F8FE0421084800F004
:10664000A3FD0190019B002B03DA0649412009F0CC
:1066500079F80348FFF7E0FF00BF03B05DF804FBE3
:10666000AC480300E848030000B583B001900091F6
:10667000019B1B681B6800990198984700BF03B0F5
:106680005DF804FB00B583B00190019B1B685B685B
:106690000198984700BF03B05DF804FB00B583B0D4
:1066A0000190019B1B689B680198984700BF03B04D
:1066B0005DF804FB82B001900B468DF80330019B1E
:1066C000DB689DF803201A7100BF02B0704782B0EA
:1066D0000190019BDB681B79184602B0704782B0BD
:1066E0000190019BDB6801225A7100BF02B0704724
:1066F00082B00190019BDB685B79184602B070475D
:1067000000B585B001900091154BFF229A60144BA3
:1067100000221A60124B00225A60114B0022C3F86B
:1067200018240F4B0022C3F814240D4B002283F8C9
:1067300020240C4803F0CCFC0390039B002B01D0D9
:10674000039B08E0084803F0F7FE084A084BD31AF9
:10675000DB0802930023184605B05DF804FB00BF78
:10676000742D0020104803005C490300AC4803006E
:1067700024480300024A034BD31ADB08184670472B
:10678000AC4803002448030000B587B001900B46D5
:106790008DF803309DF80330002B1FD0FFF7EAFF80
:1067A00004900023059313E0059B9B000E4A1344BD
:1067B0000393039B1B881A46019B1B689A4204D1D2
:1067C000019B059A1A60002309E0059B013305939C
:1067D000059A049B9A42E7D3052300E0002318465C
:1067E00007B05DF804FB00BFD82A002000B585B0D3
:1067F00001900B468DF803309DF8032001AB114644
:106800001846FFF7C1FF0346002B07D1019BDB00B1
:10681000054A13440393039B1B6800E000231846BA
:1068200005B05DF804FB00BF2448030084B001906C
:106830000B468DF80330019BDB00174A134402938B
:106840009DF80330013B032B1CD801A252F823F022
:106850006168020069680200716802007B680200DA
:1068600002238DF80F3011E004238DF80F300DE076
:10687000029B1B798DF80F3008E0029B5B798DF845
:106880000F3003E000238DF80F3000BF9DF80F306C
:10689000184604B0704700BF2448030084B001903C
:1068A000009100238DF80F30019B1B7803F0040347
:1068B000DBB2002B24D0019B1B78C3F30103DBB2B6
:1068C000012B02D0022B0CD017E0009B1B68019A11
:1068D0001288C2F38312D2B213449A1C009B1A602E
:1068E0000BE0009B1B68019A5288C2F3891292B296
:1068F00013449A1C009B1A6000BF01238DF80F30CF
:106900009DF80F30184604B07047000000B58BB0FA
:106910000023ADF826303E4802F0E6FE3D4802F086
:10692000E3FE3D4B5B6804933B4B9B680693049AE4
:10693000069B134002339B00374A134404330893E9
:1069400004AB19460898FFF7A9FF0346002B09D0AE
:10695000049A069B134002339B002F4A13440433CE
:106960000893EDE700BF0023079311E0049B5A1C36
:106970000492069A1340079A920001A90A442649F4
:1069800002339B000B445B681360079B0133079342
:10699000079B012BEAD99DF80430C3F30103DBB256
:1069A000012B10D0022B1CD1BDF80A30ADF82630D7
:1069B000BDF80630C3F389139BB203339A08049BD6
:1069C0001344049313E0BDF80A30ADF82630BDF847
:1069D0000430C3F38313DBB21A46049B13440493BD
:1069E00005E00E494FF4BF7008F0ACFE00BF094847
:1069F00002F086FE0590059B002B02D0049B064A00
:106A00005360BDF8263018460BB05DF804FB00BF9C
:106A10008C31002088310020742D00206C49030047
:106A200000B585B00021074802F0CFFD0390039B1D
:106A30000293029B83F310030193019B184605B058
:106A40005DF804FB9031002000B589B003900291FD
:106A500001920093039B1B0C0793FFF7E1FF069045
:106A6000FFF788FE0246079B934204D3214940F278
:106A7000A31008F067FE069B1904009B5A1C0A9B92
:106A80001340079A0A431C4902339B000B445A6087
:106A9000009A0A9B134002339B00174A13440433A5
:106AA0000593039B03F00703D9B2059A137861F3AA
:106AB000C5031370019B03F00F03D9B2059A138825
:106AC00061F389131380029BC3F31501059A1368C0
:106AD00061F39F231360059A1378012161F3010389
:106AE0001370059A13786FF38203137000BF09B017
:106AF0005DF804FB6C490300742D002000B58DB0D7
:106B00000390029113468DF80730039B02330A93DA
:106B100001238DF8273000238DF81B300DF11B0366
:106B2000184601F0E5FF404B1A68029B1A603E4B85
:106B30009A683D4B59683C4B1B68CB1A1344013390
:106B40000B9314E00121394802F09EFDFFF7DEFEB1
:106B500007900799354802F097FD334B9A68324BFE
:106B60005968314B1B68CB1A134401330B930A9AB3
:106B70000B9B9A42E6D89DF82730002B48D0002383
:106B800005939DF80730002B17D09DF81430012293
:106B900062F301038DF814309DF8143043F00403C0
:106BA0008DF81430039B03F00F03DAB2BDF81430F4
:106BB00062F38913ADF8143016E09DF81430022208
:106BC00062F301038DF814309DF8143043F0040390
:106BD0008DF81430039BC3F309039AB2BDF8163045
:106BE00062F38F13ADF816300F4B1A680E4B9B688B
:106BF000134002339B000C4A134404330893059A54
:106C0000089B1A60084B1A680A9B1344064A1360D3
:106C10009DF81B30184601F081FF9DF8273018467B
:106C20000DB05DF804FB00BF742D002090310020F2
:106C300000B58BB005900491039202931F4B9B68A3
:106C4000079306AB012219460298FFF757FF034648
:106C5000002B24D0069B023309930023089311E0F4
:106C6000089B9B00039A1A44099B591C0991079998
:106C70000B401268114902339B000B445A60089B79
:106C800001330893089A029B9A42E9D3069A079B1C
:106C900000931346029A04990598FFF7D5FE074B17
:106CA00093F82034002B05D000BF00F065F80346B0
:106CB000002BFAD100BF0BB05DF804FB742D00204F
:106CC00000B583B001900091002300220099019843
:106CD000FFF7AEFF00BF03B05DF804FB00B587B05F
:106CE000039002910192019B059305AA0123029949
:106CF0000398FFF79DFF00BF07B05DF804FB00B5E8
:106D000087B00390029101920093019B0493009B32
:106D1000059304AA022302990398FFF789FF00BF95
:106D200007B05DF804FB00B58BB0039002910192AF
:106D30000093019B0593009B06930C9B07930D9B6F
:106D400008930E9B099305AA052302990398FFF760
:106D50006FFF00BF0BB05DF804FB0000054B5A68E5
:106D6000044B1B689A420CBF01230023DBB2184678
:106D7000704700BF742D002000B599B0FFF7EEFFFB
:106D80000346002B01D00023BEE19B4B0022C3F839
:106D90001824BFF34F8F00BF974B5B680493964B4B
:106DA0009B681093049A109B134002339B00924AF5
:106DB00013440433119300231793002316930023E5
:106DC0000F9304AB19461198FFF768FD0346002B9B
:106DD00019D0894BD3F81834002B14D1864B1A687C
:106DE000049B9A4205D8844B1B68834A5360002356
:106DF0008AE1049A109B134002339B007E4A13449D
:106E000004331193DDE70023159311E0049B5A1C12
:106E10000492109A1340159A920001A90A447649E7
:106E200002339B000B445B681360159B0133159381
:106E3000159B012BEAD99DF8043003F00303DBB264
:106E4000022B40F09C80BDF80630C3F389139BB23F
:106E50000D93BDF80630C3F389139BB2502B28BFA6
:106E600050239BB20C930C9BC3F309039AB2BDF859
:106E7000063062F38F13ADF806300C9B08330B938A
:106E80009DF80430C3F3C203DBB20F930B995B4848
:106E900003F029F91790179B002B00F0D180179869
:106EA00003F0B2F901A9169B0822179803F068FABB
:106EB000169B08331693049BDA43109B134001334F
:106EC0009B000A930C9A0A9B9A4242D90A9B002B78
:106ED00008D0049A109B134002339B00464A134487
:106EE000043300E0464B08930A9B002B02D00A9B18
:106EF000DBB201E00C9BDBB28DF81F300A9B002B4C
:106F000001D03F4B00E0002306930A9B002B06D0E4
:106F10000C9BDAB20A9BDBB2D31ADBB200E000238F
:106F20008DF817309DF81F20169B0899179803F0CD
:106F300027FA9DF81F30169A13441693069B002BD0
:106F400016D09DF81720169B0699179803F018FA8B
:106F50000EE0049A109B134002339B00264A134410
:106F600004330993169B0C9A0999179803F008FAB1
:106F70000D9B03339A08049B1344049360E09DF82F
:106F8000043003F00303DBB2012B59D1BDF8043008
:106F9000C3F38313DBB2062B28BF0623DAB2BDF896
:106FA000043062F38913ADF80430BDF80430C3F344
:106FB0008313DBB202330E939DF80430C3F3C20394
:106FC000DBB20F930E9B9B0019460C4803F08BF825
:106FD0001790179B002B33D0179803F015F901A9D0
:106FE000169B0822179803F0CBF9169B08331693CB
:106FF000002315931BE000BF742D002010480300F0
:10700000802D0020049B5A1C0492109A13400233D6
:107010009B003F4A1344191D169B0422179803F046
:10702000AFF9169B04331693159B01331593BDF8E6
:107030000430C3F38313DBB21A46159B9342E1D3AA
:10704000179B002B40D0324BD3F810341493304BA5
:10705000D3F81834002B1BD0179803F0E4F84DE058
:1070600000238DF84F301498FFF742FB0346002BA6
:1070700002D001238DF84F309DF84F30002B03D004
:1070800017991498FFF7F0FA149BDB681B681493A8
:10709000149B002BE4D1179803F0C5F800238DF85A
:1070A00003300DF10303184601F022FD184BD3F80D
:1070B0001834002B02D1049B154A53609DF803300D
:1070C000184601F02BFD19E0114BD3F81034129340
:1070D00006E01298FFF7E2FA129BDB681B68129336
:1070E000129B002BF5D10B4A0B4BD31ADB081B0468
:1070F00043F0020309491846FFF7E2FDFFF72EFEB1
:10710000034683F00103DBB2184619B05DF804FBB7
:10711000742D00205448030024480300D84903007C
:1071200000B585B00023039323E0164BD3F8103449
:10713000029301238DF807300FE00298FFF7C7FA9A
:1071400003461A46039B934203D100238DF8073070
:1071500006E0029BDB681B680293029B002BECD1CC
:107160009DF80730002B01D0039B07E0039B013300
:107170000393039B092BD8DD4FF0FF33184605B06E
:107180005DF804FB742D002000B585B001900B461E
:107190008DF80330FFF7C4FF0390039BB3F1FF3F6B
:1071A00001D1039B22E0039BDBB219460198FFF754
:1071B00081FA104BD3F81034002B08D10D4A019BF3
:1071C000C2F81034019BDB6800221A600DE0094B05
:1071D000D3F81034DA68019BDB6812681A60054B3B
:1071E000D3F81034DB68019A1A60039B184605B087
:1071F0005DF804FB742D002000B583B00D4BD3F86F
:10720000103401930B4B012283F8202409E00198EC
:10721000FFF765FA0198FFF735FA019BDB681B68F9
:107220000193019B002BF2D100BF00BF03B05DF8BA
:1072300004FB00BF742D002082B00190009100BFBC
:1072400002B0704710B584B003900291039BDB88B5
:10725000002B0AD0039BDB881A461F4B0093134672
:107260001E4A1F49029802F087FB039B1B7A052BDD
:107270002ED0039B5B7A002B12D0039B9B881A466F
:10728000039B1B7A19461046FFF7D0FA03461A46AD
:10729000144B53F822301A461349029802F06CFB43
:1072A000039B1B6819460298FFF7C6FF039B1B7AD6
:1072B0001A460E4B53F82240039B9B880021184628
:1072C000FFF794FA034622460949029802F054FB5C
:1072D00000BF04B010BD00BF0C4A03001C4A0300ED
:1072E000544A0300F42A00206C4A0300E02A0020DC
:1072F000704A030000B585B00390029113468DF8E3
:107300000730039B1B7A052B0FD0039B5B7A002B66
:1073100006D00D4B1B681A460C49029802F02CFB54
:107320000B49029802F028FB07E09DF80730002B7C
:1073300003D00749029802F01FFB029802F0FAFA04
:1073400000BF05B05DF804FBF42A00206C4A03007E
:107350007C4A030030B58BB00790069105920493E8
:107360000E9B1B7B8DF827300E9B00221A730E9903
:107370000498FFF767FF059B062B7FD801A252F800
:1073800023F000BFA1730200AB730200BB730200C5
:10739000CF730200ED730200157402004574020001
:1073A00007990E9802F0E8FA69E0069B1B681A46F6
:1073B00007990E9802F0E0FA61E0069B1A68069BB6
:1073C00004331B6807990E9802F0D6FA57E0069B23
:1073D0001A68069B04331968069B08331B680093E0
:1073E0000B4607990E9802F0C7FA48E0069B196809
:1073F000069B04331868069B08331B68069A0C32F8
:1074000012680192009303460A4607990E9802F00B
:10741000B3FA34E0069B1868069B04331C68069B8D
:1074200008331B68069A0C321268069910310968F5
:107430000291019200932346024607990E9802F0AA
:107440009BFA1CE0069B1C68069B04331D68069B88
:1074500008331B68069A0C321268069910310968C5
:1074600006981430006803900291019200932B4615
:10747000224607990E9802F07FFA00E000BF002232
:107480000E990498FFF736FF0E9B9DF827201A737C
:1074900000BF0BB030BD00BF00B587B003900291B4
:1074A00001920093029B082B60D8009B1B7B8DF8F8
:1074B0001330009B00221A7300990198FFF7C2FE57
:1074C0000023059314E0059A029B9A4209D2039A7D
:1074D000059B13441B781A462649009802F04CFA83
:1074E00003E02549009802F047FA059B0133059314
:1074F000059B072BE7D92149009802F03DFA0023AC
:10750000059326E0059A029B9A421BD2039A059B9B
:1075100013441B788DF812309DF812307E2B0AD858
:107520009DF8123018460CF029FD0346002B02D0BE
:107530009DF8123000E02E231A461149009802F0FF
:107540001BFA03E00F49009802F016FA059B01337D
:107550000593059B072BD5D9012200990198FFF7C8
:10756000C9FE009B9DF813201A7300E000BF07B00E
:107570005DF804FB804A0300884A03008C4A03003C
:10758000904A0300944A030084B003468DF8073004
:107590009DF807305B08DBB21A460D4B9B5C8DF8FB
:1075A0000F309DF8073003F00103002B04D09DF845
:1075B0000F301B09DBB204E09DF80F3003F00F031E
:1075C000DBB28DF80E309DF80E30184604B07047CF
:1075D000D031002084B003460A468DF807301346A8
:1075E0008DF806309DF8073003F00103002B01D021
:1075F0000F2300E0F0238DF80F309DF8073003F0E3
:107600000103002B04D09DF806301B01DBB201E022
:107610009DF806308DF80E309DF807305B08DBB220
:107620001A46114B9A5C9DF807305B08DBB219468D
:107630009DF80F301340DAB20B4B5A549DF80730C7
:107640005B08DBB21A46084B9A5C9DF807305B0872
:10765000DBB219469DF80E301343DAB2024B5A548E
:1076600000BF04B0704700BFD031002000B585B026
:1076700003468DF807300023039310E00F4B1A6880
:10768000039BDB0013440293029B1B789DF80720A9
:107690009A4201D1029B0DE0039B01330393084BF7
:1076A0001B781A46039B9342E8DB0649882008F0C2
:1076B00049F80023184605B05DF804FB9831002016
:1076C0009C310020A44A030000B585B003460A4659
:1076D0008DF8073013468DF806309DF807301846B0
:1076E000FFF7C4FF0390039B002B0BD0039B5B6849
:1076F000002B07D0039B5B689DF806109DF80720C0
:107700001046984700BF05B05DF804FB2DE9F04F27
:1077100087B003460A468DF80F3013468DF80E30B9
:107720009DF80F301846FFF72FFF0346042B00F299
:10773000C28001A252F823F04D770200C177020007
:10774000DD7702000D780200237802009DF80E30EC
:10775000002B00F0AD809DF80F3001211846FFF797
:1077600039FF00238DF817300DF11703184601F08B
:10777000BFF99DF80F104FF001024FF00003A1F187
:107780002004C1F1200003FA01F702FA04F42743B0
:1077900022FA00F0074302FA01F6494BD3E900232D
:1077A00046EA020100913B430193454BDDE900129B
:1077B000C3E900129DF81730184601F0AFF977E0E1
:1077C0009DF80E30002B01D0022200E000229DF82F
:1077D0000F3011461846FFF7FDFE6CE09DF80E30A5
:1077E000002B0CD09DF80F3003211846FFF7F2FE56
:1077F0009DF80F3001211846FFF766FF5BE09DF80A
:107800000F3001211846FFF7E5FE54E09DF80E30D9
:10781000002B4FD19DF80F3004211846FFF7DAFEF8
:1078200048E09DF80E30002B06D09DF80F30032164
:107830001846FFF7CFFE3EE09DF80F3000211846B6
:10784000FFF7C8FE9DF80F3000211846FFF73CFFF8
:1078500000238DF816300DF11603184601F048F993
:107860009DF80F104FF001024FF00003A1F1200628
:10787000C1F1200003FA01F502FA06F6354322FAB7
:1078800000F0054302FA01F46FEA04086FEA050903
:107890000B4BD3E9002308EA020A09EA030B084B61
:1078A000C3E900AB9DF81630184601F037F902E045
:1078B00000BF00E000BF00BF07B0BDE8F08F00BF11
:1078C000C831002000B583B00648074B1B685B0831
:1078D0000022194600F010FE019000BF03B05DF8D1
:1078E00004FB00BFA8310020A031002000B587B004
:1078F00001900023059328E01C4B1A68059BDB00D0
:1079000013440493049B1B78184604F077FD034648
:107910008DF80F30049B5B78012B0CBF01230023F3
:10792000DBB21A469DF80F309A420CBF01230023A8
:107930008DF80E30049B1B789DF80E2011461846DA
:10794000FFF7E4FE059B01330593094B1B781A46AC
:10795000059B9342D0DB074BD3E90023134301D0AF
:10796000FFF7B0FF00BF07B05DF804FB98310020BF
:107970009C310020C831002000B585B001900B4635
:107980008DF80330019BDBB21846FFF76FFE0390C2
:10799000039B1B78184604F031FD03468DF80B302D
:1079A000039B5B78012B0CBF01230023DBB21A463B
:1079B0009DF80B309A420CBF012300238DF80A304A
:1079C0009DF80A30002B06D0054BD3E90023134362
:1079D00001D1FFF777FF00BF05B05DF804FB00BFE2
:1079E000C831002000B58BB003900B4601928DF892
:1079F0000B30019B092B01D8072367E004F0F0FB53
:107A0000034683F00103DBB2002B09D004F096FBA0
:107A10000990099B0893089B002B01D0089B55E017
:107A20002C4A039B13602C4A9DF80B3013702B4A91
:107A3000019B13601022002129480CF0FFFA29490C
:107A40004FF000024FF00003C1E9002331E09DF840
:107A50000B30DB00039A1344079303238DF8143093
:107A600000238DF815309DF816306FF300038DF864
:107A700016309DF816306FF341038DF816309DF8DF
:107A800016306FF382038DF81630079B9B788DF8C4
:107A90001530079B1B78184605AB134A194604F0AE
:107AA000ABFB0990099B0693069B002B01D0069B1C
:107AB0000CE09DF80B305A1E8DF80B20002BC6D120
:107AC0000A4A00210A4800F0E3FC034618460BB0BE
:107AD0005DF804FB983100209C310020A03100208B
:107AE000D0310020C831002079790200ED78020001
:107AF000084B030000B583B0114B1B68002B04D169
:107B0000104940F2351007F01DFE002301930CE0F0
:107B10000B4B1A68019BDB0013441B7801211846AC
:107B200004F0E4FB019B01330193074B1B781A46D9
:107B3000019B9342ECD30023184603B05DF804FB8D
:107B400098310020A44A03009C31002086B00390A5
:107B50000291019201238DF817309DF81730214AC8
:107B6000039B13601F4A029B53601E4A019B936054
:107B7000039B44F20102934213D0039B44F202029E
:107B8000934221D1019B174AD360164BDB681B88B7
:107B90001A46144B9A61134BDB685B68114AD36138
:107BA00012E0019B0F4A13610E4B1B699B680D4A43
:107BB00053610C4B1B691B680A4A9361094B1B6993
:107BC0005B68084AD36100BF72B600BF00BF9DF872
:107BD0001730DBB2002BFAD162B600BF00BF06B08F
:107BE000704700BFE031002000B583B002900091E3
:107BF000019244F2010071466A4600F003F803B0B6
:107C000000BD00BF30B58BB007900691059272B6EB
:107C100000BFFFF7F1FA00BFFFF7AEF80346002BF5
:107C2000FAD1079B44F2020293422FD0079B44F201
:107C30000202934269D8079B44F20102934237D073
:107C4000079B44F2010293425FD8079B012B05D0AA
:107C5000079B41F2010293420CD056E0394A3A4B5D
:107C6000D31ADB081B0443F0010338491846FFF719
:107C700027F857E0334A344BD31ADB081B0443F090
:107C8000010333491846FFF71BF84BE0059B0993A6
:107C90002C4A2D4BD31ADB081B0443F00100099B2F
:107CA0005B681A46099B1B882A49FFF728F839E0C8
:107CB000059B0893234A244BD31ADB081B0443F08B
:107CC0000104089B9D68089B9B68184602F054FDC0
:107CD00003461846089B5B681946089B1B68069A72
:107CE00002920193009103462A461B492046FFF762
:107CF0001AF8144A144BD31ADB081B0443F001038F
:107D000016491846FEF7DCFF0CE00E4A0E4BD31A5C
:107D1000DB081B0443F00103069A11491846FEF7DD
:107D2000DDFF00BF0F4B1B6803F00103002B00D0E9
:107D300000BE059A06990798FFF708FF00BF0BB031
:107D400030BD00BF54480300244803000C4B03001F
:107D50002C4B0300504B03006C4B0300944B03006F
:107D6000A84B0300F0ED00E084B00190019B9B68FC
:107D70000393019BDA68039BD31A184604B070473B
:107D800082B001900B468DF80330019B1A68019B6D
:107D9000DB68019989880B4013449DF803201A7011
:107DA000019BDB685A1C019BDA6000BF02B0704780
:107DB00084B003900B460192ADF80A30039B1A6819
:107DC000039B9968BDF80A300B44039989880B40DE
:107DD00013441A78019B1A7000BF04B0704700B5B5
:107DE00083B001900091009A00210198FFF7E0FF15
:107DF000019B9B685A1C019B9A6000BF03B05DF811
:107E000004FB84B0039002911346ADF80630029B48
:107E1000002B01D10E231DE0BDF80630002B07D04A
:107E2000BDF806305A1EBDF806301340002B01D0B5
:107E300009230FE0039B029A1A60BDF80630013B4C
:107E40009AB2039B9A80039B00229A60039B0022B4
:107E5000DA600023184604B0704700B583B0019083
:107E60000B468DF803300198FFF77EFF0246019B19
:107E70009B889A4207D89DF8033019460198FFF76E
:107E80007FFF002300E00423184603B05DF804FBE5
:107E900000B583B0019000910198FFF765FF03469C
:107EA000002B05D000990198FFF799FF002300E00F
:107EB0000523184603B05DF804FB0000F0B583B05D
:107EC000124801F00FFA034618464FF00001104B1C
:107ED000D3E90023861841EB0307CDE900670D4B7A
:107EE000D3E90023DDE90001994208BF904207D29F
:107EF000DDE9002312F1807443F10005CDE900456E
:107F0000DDE900231046194603B0F0BD182B002010
:107F1000083200201032002088B001900091019BAF
:107F20000793009B0693079BD3E90223CDE9042323
:107F3000069BD3E90223CDE90223DDE90423DDE931
:107F40000201994208BF90422CBF01230023DBB2FB
:107F5000184608B07047000030B585B00190019B0D
:107F60005B69002B03D12B49A22007F0EBFB002318
:107F70008DF80F30284B1B78002B45D0019B002B30
:107F800042D0019B1B7FDBB2002B3DD0FFF796FF59
:107F9000019BD3E90223994208BF90422CD3019B55
:107FA0001B69002B02D1019B00221A77019B5B69A0
:107FB000019A926910469847019B1B69002B23D0B8
:107FC000019B1B7FDBB2002B1ED0019BD3E902017A
:107FD000019B1B691A464FF00003841841EB03050F
:107FE000019BC3E90245019B19460C4802F01EFBA8
:107FF00001238DF80F3007E0019B1946074802F076
:1080000015FB01238DF80F309DF80F30184605B091
:1080100030BD00BFCC4B030004320020344C0300C1
:10802000F0B589B0019000910D230793009B0022C9
:108030001A70019BD3E90245FFF740FF02460B4649
:10804000A61A65EB0307CDE90467DDE90423012ADD
:1080500073F100031BDB049BB3F5350F05D300F070
:10806000A9FA0246154B134403E0019BD3E902230E
:10807000134603934FF49603039A0021104801F02E
:1080800033F80790079B002B05D1012313E0002153
:108090000B4801F001F9079B0D2B07D10198FFF761
:1080A0005BFF03461A46009B1A7003E00549F52062
:1080B00007F048FB0023184609B0F0BDFFFFB400ED
:1080C000182B0020CC4B030000B583B0044802F00D
:1080D000E7FA0190019B184603B05DF804FB00BF6E
:1080E000344C030000B583B0044802F0FBFA019061
:1080F000019B184603B05DF804FB00BF344C03003D
:1081000000B583B0FFF7E0FF0190019B002B02D088
:10811000019B00221A77019B002BF3D100BF00BF07
:1081200003B05DF804FB0000054BD3E9002312F116
:10813000807043F10001024BC3E9000100BF7047AA
:108140000832002000B583B00190134B1B68002B50
:108150001DD0019801F0C6F80F4B1B68D3E902232C
:10816000134623F07F43194600F018FA0346B3F58F
:10817000960F04D309494FF4957007F0E3FA064BC4
:108180001B681846FFF7E8FE034B00221A6000BF89
:1081900003B05DF804FB00BF00320020CC4B0300AD
:1081A00000B583B00190FFF789FE02460B460349F4
:1081B000C1E9002300BF03B05DF804FB10320020CA
:1081C00000B585B00190FFF78DFF039000238DF877
:1081D0000B30039B002B48D02B4B1B68002B03D18B
:1081E00001238DF80B3019E0039BD3E90201264BE4
:1081F0001B68D3E90223994208BF90420ED20123A3
:108200008DF80B30204B1B681B7FDBB2002B05D099
:108210001D4B1B6819461D4802F008FA9DF80B30EB
:10822000002B2AD0FFF750FF03900DF10A031946E7
:108230000398FFF7F5FE0346002B12D0124B1B6884
:10824000002B02D1019800F05BFE0F4A039B1360E4
:108250009DF80A3083F00103DBB2002BB3D000BFDE
:108260000EE0094B00221A60ADE7074B1B68002B9C
:1082700005D1019800F05AFE01E000BF00E000BF08
:1082800000BF05B05DF804FB00320020344C030051
:1082900000B587B001902C4A03AB1946104601F097
:1082A0001EF9059048E0059B1B78022B2ED0022B6F
:1082B00032DC002B02D0012B14D02DE0059B5B6833
:1082C0001B7FDBB283F00103DBB2002B26D0059BC2
:1082D0005B6801221A77059B5B6819461B4802F010
:1082E000A5F91BE0059B5A68194B1B689A4203D1FC
:1082F000174B00221A6012E0059B5B681946134871
:1083000002F004FA03468DF8133008E0FFF7F8FE98
:10831000104B01221A7002E000BF00E000BF0A4AC1
:1083200003AB1946104601F0F3F8074A03AB1946B0
:10833000104601F0D4F80590059B002BB3D100BF87
:1083400000BF07B05DF804FB70320020344C03001E
:10835000003200200432002000B583B00190019863
:1083600000F08DFF0346002B01D0FFF7DDFE00215A
:10837000019800F0A2FF0346002B02D00198FFF7FE
:10838000E1FE0121019800F098FF0346002B02D086
:108390000198FFF705FF0198FFF77AFF0198FFF7B3
:1083A0000FFF00BF03B05DF804FB000008B50248F2
:1083B00000F0A5FF00BF08BD182B002000B585B058
:1083C000034600918DF80730114A02AB194610465A
:1083D00001F058F80390039B002B13D0039B9DF8EA
:1083E00007201A70039B009A5A60094A02AB19468B
:1083F000104601F060F80346002B01D0FFF7D6FFCE
:10840000002300E00423184605B05DF804FB00BF1C
:108410007032002000B583B0164B1B6800931648DD
:1084200008235822154900F0FAFF0190019B002B08
:1084300001D0019B19E06B46114A1946114800F022
:10844000E1FC0190019B002B01D0019B0DE001217B
:108450000C4800F003FF01230B4A0121094800F0FA
:108460007BFD0A4B01221A70019B184603B05DF890
:1084700004FB00BF304C0300703200201832002093
:1084800059830200182B0020FFFF7F0004320020D8
:1084900000B587B003900B4601928DF80B30039B1B
:1084A000002B04D1134940F22E2007F04BF9019B19
:1084B000002B04D10F4940F22F2007F043F9019B14
:1084C000002B01D1072310E0039B1B680593059B3C
:1084D000019A5A619DF80B30012B0CBF0123002338
:1084E000DBB21A46059B1A610023184607B05DF8F7
:1084F00004FB00BFCC4B030030B587B00390029162
:108500000192039B002B04D1154940F23E2007F055
:1085100019F9039B0593059B1B7FDBB2002B01D050
:1085200000231AE0059B019A9A61FFF7C7FC029BA2
:108530001A464FF00003841841EB0305059BC3E97D
:108540000245059B1B69002B02D0059B029A1A610C
:1085500005990020FFF732FF0346184607B030BDEB
:10856000CC4B030000B585B00190019B002B04D1DA
:1085700009494FF4157007F0E5F8019B0393039B3D
:1085800000221A7703990120FFF718FF03461846C7
:1085900005B05DF804FB00BFCC4B030082B0019036
:1085A0000091019A009BD31A23F07F43184602B032
:1085B0007047000008B5034800F094FE03461846D3
:1085C00008BD00BF182B002000B587B003900291B2
:1085D00013468DF8073000230593039B1B781A463A
:1085E000114B9B5C002B09D0039B04339DF80720A3
:1085F0000299184605F038FA05900FE0039B1B78A6
:108600001A46094B9B5C002B08D1039B0C339DF849
:1086100007200299184604F0F9FB0590059B1846BF
:1086200007B05DF804FB00BFF432002000B585B050
:10863000019000238DF80F30019B1B781A46114BD7
:108640009B5C002B08D0019B0433184605F0CAFA46
:1086500003468DF80F300EE0019B1B781A46094B3C
:108660009B5C002B07D1019B0C33184604F056FC91
:1086700003468DF80F309DF80F30184605B05DF8B1
:1086800004FB00BFF432002000B587B003900291D4
:1086900013468DF8073000230593039B1B781A4679
:1086A000114B9B5C002B09D0039B04339DF80720E2
:1086B0000299184605F0AEFA05900FE0039B1B786F
:1086C0001A46094B9B5C002B08D1039B0C339DF889
:1086D00007200299184604F079FC0590059B18467E
:1086E00007B05DF804FB00BFF432002084B00190B5
:1086F000019B9B680393019BDA68039BD31A18467E
:1087000004B0704700B587B001900091019B1B78C1
:10871000022B45D0022B6ADC002B52D0012B66D1F4
:10872000019B1B7A002B05D1012233493348FFF707
:10873000ABFF5DE0019B5B681B7819463048FFF793
:108740008CFB0590059B002B0AD001238DF80C3083
:10875000059B04932B4B1B6803AA104698470DE01A
:108760002748FFF7C3FF0346002B07D000238DF8EF
:108770000C30244B1B6803AA104698472048FFF78B
:10878000B5FF03461E4A9288934205D801221A4932
:108790001A48FFF779FF2BE01B4B01221A7027E0E4
:1087A00002238DF80C30019BDB68049301221249EF
:1087B0001248FFF769FF134B1B6803AA104698473E
:1087C00016E012491248FFF763FB0346002B05D160
:1087D00001220E490948FFF7F7FE09E003238DF84F
:1087E0000C30084B1B6803AA1046984700E000BFF6
:1087F00000BF07B05DF804FB8C320020202B002066
:1088000090320020843200208D32002088320020F7
:10881000A032002030B591B00390029101928DF802
:1088200003303C4A019B1360029B002B01D10723BC
:108830006DE0029B1968029B5B689BB21A46364842
:10884000FFF7DFFA0F900F9B0E930E9B002B01D0CA
:108850000E9B5CE0029B9968029BDB689BB21A4608
:108860002E48FFF7CEFA0F900F9B0D930D9B002B18
:1088700001D00D9B4BE02A4B04AC1D460FCD0FC41D
:1088800095E80F0084E80F00039B5B690A93039B44
:108890001B7C002B14BF01230023DBB28DF8243096
:1088A0009DF803308DF82C30039B5B7C002B01D0AE
:1088B0000E2300E000238DF82530039BDB68069330
:1088C000039B9B680793039B1B680593039B5B6853
:1088D000049304AB134A1946134802F0ABFE0F9001
:1088E0000F9B0C930C9B002B01D00C9B0FE00F4BAC
:1088F00000221A70039B1B68B3F1FF3F06D00122D0
:108900000B490948FFF7C0FE034600E00023184664
:1089100011B030BD8432002090320020A0320020FF
:10892000404C030005870200202B00208D320020E0
:108930008C32002000B587B00190019B002B03D141
:108940001449CA2006F0FEFE134B1B788DF8173031
:1089500001991248FFF79CFA04909DF81730002BFC
:1089600012D00D4B00221A7001220D490D48FFF75D
:108970008BFE0390039B0293029B002B04D0054ABD
:10898000D6210298FFF730F9049B184607B05DF82E
:1089900004FB00BF604C03008D32002090320020A9
:1089A0008C320020202B002000B585B003468DF8C6
:1089B00007309DF8073019461048FFF74EFA03902C
:1089C000039B002B15D10E48FFF730FE034683F0C2
:1089D0000103DBB2002B0CD00A490848FFF758FA14
:1089E0000346002B05D1012206490548FFF7ECFD9F
:1089F0000390039B184605B05DF804FBA0320020ED
:108A0000202B00208832002082B0EFF310830093E7
:108A1000009B019372B600BF019B184602B07047DD
:108A200062B600BF00BF704700B585B00190FFF788
:108A3000EBFF0390164B9B68002B1BD1144B0122BC
:108A40009A60144BD3F88020134B1340104A1360E4
:108A5000104B114AC3F880200E4BD3F884300C4AD7
:108A600053600C4B4FF0FF32C3F88420019B00226F
:108A70001A7002E0019B01221A70039B002B01D1A6
:108A8000FFF7CEFF0023184605B05DF804FB00BFDA
:108A9000B032002000E100E0FC06FFBD00B585B06B
:108AA00003468DF80730104B9B68002B16D09DF8BD
:108AB0000730002B12D1FFF7A7FF03900B4A0A4B98
:108AC0001B681360094A084B5B685360064B002221
:108AD0009A60039B002B01D1FFF7A2FF00231846E9
:108AE00005B05DF804FB00BFB032002000E100E0FB
:108AF00000B583B0019000F02BF80346012B03D0A2
:108B00000549432006F01EFE0198FFF78DFF00BFC8
:108B100003B05DF804FB00BFC44C030000B583B094
:108B200003468DF8073000F013F80346012B03D0FD
:108B30000649512006F006FE9DF807301846FFF75B
:108B4000ADFF00BF03B05DF804FB00BFC44C0300E1
:108B500084B0EFF305830193019BC3F308030393F0
:108B6000039B002B0DD1EFF314830093009B029322
:108B7000029B03F00103002B0CBF01230023DBB297
:108B800000E00123184604B07047000082B003469D
:108B90008DF807309DF8073003F01F0205499DF955
:108BA00007305B09012000FA02F241F8232000BFE0
:108BB00002B0704700E100E082B003468DF8073054
:108BC0009DF8073003F01F0206499DF907305B0945
:108BD000012000FA02F2403341F8232000BF02B026
:108BE000704700BF00E100E082B0034600918DF8BD
:108BF00007309DF90730002B0CDA009BDAB20C49E4
:108C00009DF8073003F00F03043B5201D2B20B442E
:108C10001A7609E0009BDAB206499DF90730520145
:108C2000D2B20B4483F8002300BF02B0704700BFEC
:108C300000ED00E000E100E000B583B003460A4625
:108C40008DF8073013468DF806309DF80630012B5D
:108C500003D99DF80630032B0BD99DF80630042B61
:108C600003D99DF80630072B03D908496B2006F07D
:108C700069FD9DF806209DF9073011461846FFF75B
:108C8000B3FF00BF03B05DF804FB00BF2C4D030031
:108C900000B583B003468DF807309DF907301846BC
:108CA000FFF774FF00BF03B05DF804FB00B585B0AB
:108CB0000190019B002B0AD0074B43F00103039363
:108CC000019B9B010293039B0298984700E000BF21
:108CD00005B05DF804FB00BF404E030084B0039074
:108CE00002910192039B029A02F5A872019943F83E
:108CF000221000BF04B0704782B001900091019B28
:108D0000009A02F5A87253F82230184602B0704754
:108D100082B001900091019B009AC3F8042300BF28
:108D200002B0704782B001900091019B009AC3F895
:108D3000082300BF02B0704782B001900B46ADF827
:108D40000230BDF80230019A13441B68184602B085
:108D5000704784B001900B46ADF80230BDF8023088
:108D6000019A134400221A60BDF80230019A13449C
:108D70001B680393039B00BF04B0704782B001904F
:108D8000019BD3F80435184602B0704700B583B094
:108D900001900091009BB3F5805F04D306494FF426
:108DA000BE7006F0CFFC019B009AC3F8082500BFF7
:108DB00003B05DF804FB00BF5C4D030082B001907E
:108DC0000B468DF803309DF80320019B13441A468F
:108DD0000123136000BF02B0704782B00190009180
:108DE000019B009AC3F8442300BF02B0704782B0D1
:108DF00001900091019B009AC3F8482300BF02B084
:108E00007047000000B587B0039002910192039B68
:108E1000002B03D13349552006F094FC029B002B14
:108E200003D13049562006F08DFC019B002B03D165
:108E30002C49572006F086FC039B5B7919462A4A89
:108E4000019B42F82130039B5B79284ADB001344E5
:108E50001B79002B0ED008230593254A254BD31AE6
:108E6000DB081B0443F0020323491846FDF728FFE3
:108E7000059B32E0039B1A68029B1B88194610462B
:108E8000FFF784FF039B93F90420029B9B7819460C
:108E90001046FFF7D1FE039B93F904301846FFF705
:108EA000F7FE039B5B79114ADB00134401221A7120
:108EB000039B5B7919460D4A039B42F8313000232E
:108EC00005930B4A0B4BD31ADB081B0443F0030337
:108ED0000A491846FDF7F4FE059B184607B05DF8F1
:108EE00004FB00BF8C4D0300BC320020C0320020C8
:108EF0006448030024480300EC4D0300104E0300B7
:108F000000B583B00190019B002B03D10649872057
:108F100006F018FC019B1B6800211846FFF74EFF66
:108F200000BF03B05DF804FB8C4D030000B583B0B7
:108F30000190019B002B03D106498D2006F002FC15
:108F4000019B1B6804211846FFF738FF00BF03B0E0
:108F50005DF804FB8C4D030000B587B003900291CF
:108F600001928DF80330039B002B03D121499620F9
:108F700006F0E8FB4FF48032029B02FA03F30593FC
:108F8000029B50339BB29B00ADF81230019B23F043
:108F90007F430193039B1B6805991846FFF7C2FEA8
:108FA000039B1B6805991846FFF721FF039B1B686D
:108FB000BDF8122011461846FFF7CBFE039B1B6835
:108FC000019A02991846FFF789FE039B1B680599D1
:108FD0001846FFF702FF9DF80330002B05D0039BD6
:108FE0001B6805991846FFF793FE00BF07B05DF8B0
:108FF00004FB00BF8C4D030000B585B003900291C7
:1090000013468DF80730039B002B03D10B49A92091
:1090100006F098FB039B1B6802991846FFF7DDFEDC
:109020009DF80730002B05D0039B1B68029918465A
:10903000FFF76EFE00BF05B05DF804FB8C4D03002A
:1090400000B583B001900091019B002B03D10A4928
:10905000B32006F077FB019B1B6800991846FFF7C9
:10906000C6FE019B1B6800991846FFF75BFE00BF18
:1090700003B05DF804FB00BF8C4D030000B583B066
:1090800001900B46ADF80230019B002B03D10F4934
:10909000BA2006F057FB019B1B68BDF80220114661
:1090A0001846FFF749FE0346002B09D0019B1B68B9
:1090B000BDF8022011461846FFF74BFE012300E0E1
:1090C0000023184603B05DF804FB00BF8C4D03007D
:1090D00082B001900091019A009BD31A23F07F4344
:1090E000184602B07047000000B58BB003900291A3
:1090F00001920093039B002B03D15749CD2006F02A
:1091000021FB4FF48032029B02FA03F30993029B86
:1091100050339BB29B00ADF82230019B23F07F437C
:10912000019309990398FFF78BFF039B1B6818466F
:10913000FFF724FE0790039B1B6802991846FFF770
:10914000DBFD0690039B1B68079A02991846FFF700
:10915000C5FD039B1B68BDF8222011461846FFF78A
:10916000F8FD07990698FFF7B3FF0346012B0AD1D4
:109170001020FFF79BFD039B1B68BDF822201146C2
:109180001846FFF7E6FD039B1B681846FFF7F6FD40
:10919000079007990198FFF79BFF0590039B1B68B9
:1091A00009991846FFF719FE059B012B15D1039B62
:1091B0001868019B01331A460299FFF78FFD1020B2
:1091C000FFF774FD039B1B681846FFF7D7FD0246A7
:1091D000079B934235D00D2339E0039B1B68019A0E
:1091E00002991846FFF77AFD039B1B681846FFF7A4
:1091F000C5FD0790019B013B07991846FFF768FFE3
:109200000590009BC3F1FF1303F57F43059A9A4233
:1092100001D90D231BE0059B002B12D1039B18687D
:10922000019B01331A460299FFF758FD039B1B6807
:109230001846FFF7A3FD0246079B934201D00D237A
:1092400005E0012209990398FFF7D6FE002318468E
:109250000BB05DF804FB00BF8C4D030000B583B07C
:1092600001900B468DF803309DF803301A46022119
:109270000198FFF7C1FE00BF03B05DF804FB00B525
:1092800083B001904FF482710198FFF7F7FE034617
:10929000184603B05DF804FB00B583B0019000915F
:1092A0004FF48032009B02FA03F319460198FFF74E
:1092B000C7FE00BF03B05DF804FB00B585B00190A8
:1092C0000091009B50339BB29B00ADF80E30BDF86F
:1092D0000E3019460198FFF7D1FE0346184605B037
:1092E0005DF804FB00B583B00190019B1B68184634
:1092F000FFF744FD0346184603B05DF804FB00B5D4
:1093000083B00190019B93F904301846FFF754FC99
:1093100000BF03B05DF804FB08B5044B1B68044AAA
:1093200012681046984700BF08BD00BFBC3200203D
:10933000C032002086B001900091019B53E8011FCC
:109340008AB2D88902449889824228BF121A1889A1
:10935000824202BFBFF32F8F002307E0C2EA01025F
:1093600043E801200028E9D14FF001038DF80F30C8
:10937000059002910492029A009B1A609DF80F30AA
:10938000DBB2184606B0704784B00190019951E8ED
:10939000013FC3EA034341E80132002AF7D10392B7
:1093A000029300BF04B0704786B001900091019B0A
:1093B00053E8021F1FFAA1F2D888824202BFBFF30E
:1093C0002F8F00230DE0D88902449889824228BF5C
:1093D000121AC1EA024243E802200028E8D14FF005
:1093E00001038DF80F30059002910492029A009BC0
:1093F0001A609DF80F30DBB2184606B0704784B093
:109400000190019951E8023FC3EA234341E8023247
:10941000002AF7D10392029300BF04B0704784B0D2
:109420000390029111461A460B46ADF806301346DA
:10943000ADF80430029B002B01D10E231FE0BDF8D4
:109440000630BDF80420B3FBF2F102FB01F29B1AD7
:109450009BB2002B01D0092311E0039B029A1A60F2
:10946000039B00225A60039B00229A60039BBDF875
:1094700006209A81039BBDF80420DA810023184658
:1094800004B0704700B585B001900091009B19466B
:109490000198FFF74FFF0346002B07D0019B1B6885
:1094A000009A128813440393039B00E0002318469C
:1094B00005B05DF804FB00B583B001900091009BFE
:1094C0001A88009B5B889A4204D10198FFF75CFFE1
:1094D000012300E00023184603B05DF804FB00B54B
:1094E00085B001900091009B19460198FFF75CFF41
:1094F0000346002B07D0019B1B68009A5288134437
:109500000393039B00E00023184605B05DF804FBBD
:1095100000B583B001900091009B1A88009B5B8886
:109520009A4204D10198FFF76AFF012300E000236B
:10953000184603B05DF804FB00B585B001900091BA
:10954000009B5B099B00019A1A44009B03F01F03D8
:10955000012101FA03F31946104600F04DF803907B
:1095600000BF05B05DF804FB00B585B00190009127
:10957000009B5B099B00019A1A44009B03F01F03A8
:10958000012101FA03F3DB431946104600F064F8A9
:10959000039000BF05B05DF804FB82B0019000911C
:1095A000009B5B099B00019A13441A68009B03F01F
:1095B0001F0322FA03F303F00103002B14BF01235E
:1095C0000023DBB2184602B0704710B487B0019098
:1095D0000091019B009A53E8004F104643E80001B8
:1095E00091F0000FF7D1059404900391059B184664
:1095F00007B05DF8044B704710B487B0019000913C
:10960000019B009A53E8004F44EA020043E800013E
:1096100091F0000FF6D1059404900391049B184635
:1096200007B05DF8044B704710B487B0019000910B
:10963000019B009A53E8004F04EA020043E800014E
:1096400091F0000FF6D1059404900391059B184604
:1096500007B05DF8044B704710B487B001900091DB
:10966000019B009A53E8004F04EA020043E800011E
:1096700091F0000FF6D1059404900391049B1846D5
:1096800007B05DF8044B704710B487B001900091AB
:10969000019B009A53E8004F04EB020043E80001ED
:1096A00091F0000FF6D1059404900391049B1846A5
:1096B00007B05DF8044B704710B487B0019000917B
:1096C000019B009A53E8004FA4EB020043E800011D
:1096D00091F0000FF6D1059404900391049B184675
:1096E00007B05DF8044B704700B583B001900121CD
:1096F0000198FFF781FF0346184603B05DF804FBAD
:1097000000B583B0019000210198FFF78DFF03465B
:10971000184603B05DF804FB00B583B001900B461A
:109720008DF80330019B002B03D10849E82006F097
:1097300009F8019BDA689DF803300199098A01FB59
:1097400003F31344184603B05DF804FB484E0300CE
:1097500000B583B001900091019B002B03D1084913
:10976000F52005F0EFFF009B019AD2689B1A019A41
:10977000128AB3FBF2F3DBB2184603B05DF804FBC8
:10978000484E030000B585B00190019B002B01D12C
:109790000E234CE0019B1B68002B03D12649FF20C0
:1097A00005F0D0FF019B5B68002B04D122494FF4E8
:1097B000807005F0C7FF019B9B68002B04D11E49F8
:1097C00040F2011005F0BEFF019BDB68002B04D1C5
:1097D00019494FF4817005F0B5FF019B1B8A002BDE
:1097E00004D1154940F2031005F0ACFF019B9A68C3
:1097F000019B5B68D31A8DF80F30019B1B68019A9F
:1098000052681A6007E0019B1A681368591C1160BE
:109810009DF80F201A709DF80F305A1E8DF80F20FA
:10982000002BF0D1019B1B6800221A7100231846FF
:1098300005B05DF804FB00BF484E030000B585B0DD
:109840000190019B002B04D11F494FF4927005F049
:1098500079FF0023039300238DF80A300DF10A03EA
:109860001846FFF745F9019B1B681A68019B5B6866
:109870009A421FD9019B1B681A68013A1A601B683B
:109880001B7819460198FFF747FF0390019B9A68E0
:10989000019B1B681B68D31A8DF80B30019B1B685A
:1098A0001B799DF80B209A4204D9019B1B689DF8F7
:1098B0000B201A719DF80A301846FFF72FF9039B09
:1098C000184605B05DF804FB484E030010B584B09F
:1098D00001900091019B002B04D1154940F24710E3
:1098E00005F030FF009B002B04D111494FF4A47008
:1098F00005F028FF009B039300238DF80B300DF13A
:109900000B031846FFF7F4F8019B1B681C68621CE8
:109910001A6003990198FFF71BFF034623709DF817
:109920000B301846FFF7FAF800BF04B010BD00BFB7
:10993000484E030000B583B00190019B002B03D17A
:109940000C49312005F0FEFE019B9B68002B0CD0DA
:10995000019B5B69019A1069019A1168019A9268EA
:109960009847019B00229A6000E000BF03B05DF8B9
:1099700004FB00BFAC4E03000EB400B584B00190F0
:10998000019B002B03D11849422005F0DBFE019B0F
:109990005B69002B03D11449432005F0D3FE019BE2
:1099A0001B68002B03D11049442005F0CBFE019B1E
:1099B0005B68002B03D10C49452005F0C3FE059BD5
:1099C000002B0AD00023039306AB039303AB1A4684
:1099D0000599019800F0B8F900E000BF04B05DF807
:1099E00004EB03B0704700BFAC4E030000B583B07A
:1099F00001900B468DF803309DF803300A2B03D1FC
:109A00000D210198FFF7F2FF019B1A68019B9B68EB
:109A1000581C0199886013449DF803201A70019B1B
:109A20009A68019B5B689A4202D30198FFF782FF14
:109A300000BF03B05DF804FB00B587B0039002914E
:109A40000192009300230593009B03F00103002B78
:109A500024D00BE0029B01330293059B0133059355
:109A60009DF8133019460398FFF7C0FF029B1B783F
:109A70008DF813309DF81330002BEBD106E0019BDD
:109A8000013B019320210398FFF7B0FF019A059B4A
:109A90009A422ED9019B002BF1D12AE0029B002B88
:109AA0000BD002980AF01FFB059006E0019B013BDA
:109AB000019320210398FFF799FF019A059B9A4291
:109AC0000FD9019B002BF1D10BE0029B01330293D4
:109AD000059B013305939DF8133019460398FFF752
:109AE00085FF029B1B788DF813309DF81330002BF7
:109AF000EBD100BF07B05DF804FB000000B589B0F2
:109B00000390029101920093029B07930123069315
:109B100007E0079A019BB2FBF3F30793069B01331F
:109B20000693079A019B9A42F3D2009A069B9A42A7
:109B300001D9009B06930B9B03F00103002B22D15C
:109B40000A9B002B1FD00B9B03F00203002B06D0B7
:109B5000009B002B03D130238DF8173002E0202327
:109B60008DF8173008E00A9B013B0A939DF81730E7
:109B700019460398FFF73AFF0A9B002B03D0069A79
:109B80000A9B9A42EFD301230793009B012B03D931
:109B9000009B013B009309E0029A079BB2FBF3F3A1
:109BA0000493049A019B9A4200D205E0079B019A14
:109BB00002FB03F30793E8E7029A079BB2FBF3F378
:109BC0000493049B079A02FB03F3029AD31A0293AD
:109BD000154A049B13441B7819460398FFF706FFA8
:109BE000079A019BB2FBF3F30793079B002BE3D18A
:109BF0000B9B03F00103002B11D00A9B002B0ED00E
:109C000006E00A9B013B0A9320210398FFF7EEFE32
:109C10000A9B002B03D0069A0A9B9A42F1D300BFFD
:109C200009B05DF804FB00BF644F030000B589B0C4
:109C30000590049103920293049B002BB8BF5B42F2
:109C400006930123079307E0039B069A92FBF3F325
:109C50000693079B01330793039B069A9A42F3DA14
:109C6000029A079B9A4201D9029B07930A9B002BF9
:109C70000AD0049B002B04DB0B9B03F00403002B96
:109C800002D00A9B013B0A930B9B03F00203002BBB
:109C900002D0029B002B16D00B9B03F00103002B7C
:109CA00011D10A9B002B0ED006E00A9B013B0A93C0
:109CB00020210598FFF79AFE0A9B002B03D0079AF4
:109CC0000A9B9A42F1D3049B002B07DA049B5B4268
:109CD00004932D210598FFF789FE08E00B9B03F004
:109CE0000403002B03D02B210598FFF77FFE0B9B6D
:109CF00003F00203002B19D00B9B03F00103002B90
:109D000014D1029B002B11D10A9B002B0ED006E030
:109D10000A9B013B0A9330210598FFF767FE0A9BD7
:109D2000002B03D0079A0A9B9A42F1D304990B9B0C
:109D300001930A9B0093029B039A0598FFF7DEFEAE
:109D400000BF09B05DF804FB00B58FB00590049129
:109D50000392059B002B04D1B64940F2522005F036
:109D6000F1FC059B5B69002B04D1B2494FF41570DF
:109D700005F0E8FC059B1B68002B04D1AD4940F2BF
:109D8000552005F0DFFC059B5B68002B04D1A94939
:109D900040F2562005F0D6FC049B002B00F0938186
:109DA000049B1B788DF83730049B013304939DF896
:109DB0003730002B00F07E819DF83730252B40F0A6
:109DC0006D8100230A9301230C93049B1B788DF86B
:109DD00037309DF83730302B0DD0302B1BDC2B2B40
:109DE00011D02D2B17D10A9B43F001030A93049B3A
:109DF0000133049312E00A9B43F002030A93049B8D
:109E0000013304930AE00A9B43F004030A93049B82
:109E10000133049302E000230C9300BF0C9B002B42
:109E2000D3D1002309939DF837302A2B0CD1039B03
:109E30001B68191D039A11601B68099A1344099342
:109E4000049B013304931AE0049B1B788DF8373090
:109E50009DF837302F2B12D99DF83730392B0ED87B
:109E6000049B01330493099A13469B0013445B003F
:109E70001A469DF837301344303B0993D3E700234B
:109E80000B93049B1B788DF837309DF837302E2BC1
:109E90001DD1049B01330493049B1B788DF837304C
:109EA0009DF837302F2B12D99DF83730392B0ED82B
:109EB000049B013304930B9A13469B0013445B00ED
:109EC0001A469DF837301344303B0B93E4E7049B6C
:109ED0001B788DF837309DF837306C2B03D09DF808
:109EE0003730682B07D1049B01330493049B1B7804
:109EF0008DF83730EFE79DF83730252B00F0C48020
:109F0000252BC0F2C680782B00F3C380582BC0F2FB
:109F1000C080583B202B00F2BC8001A252F823F0F5
:109F20000FA0020093A0020093A0020093A00200E1
:109F300093A0020093A0020093A0020093A002004D
:109F400093A0020093A0020093A00200A59F02002C
:109F5000C79F020093A0020093A0020093A00200FA
:109F600093A00200C79F020093A0020093A00200EA
:109F700093A0020093A0020093A0020093A002000D
:109F800055A0020093A0020093A0020039A0020095
:109F900093A00200EB9F020093A0020093A0020096
:109FA0000FA00200039B1B68191D039A11601B6818
:109FB0000C930C9B8DF81F309DF81F3019460598A7
:109FC000FFF714FD66E0039B1B68191D039A1160DF
:109FD0001B680C930A9B0193099B00930B9B0A221D
:109FE0000C990598FFF722FE54E0039B1B68191D8E
:109FF000039A11601B680C930C990A9B0193099BAF
:10A0000000930B9B0A220598FFF778FD42E0039B23
:10A010001B68191D039A11601B680C930C990A9B0D
:10A020000193099B00930B9B10220598FFF766FD97
:10A0300030E000BF044F0300039B1B68191D039A07
:10A0400011601B6808930A9B099A08990598FFF705
:10A05000F3FC1FE0039B1B68191D039A11601B682A
:10A060000C9330210598FFF7C1FC78210598FFF784
:10A07000BDFC0C99002301930823009308231022B0
:10A080000598FFF73BFD05E025210598FFF7AEFC9D
:10A0900000E000BF049B0133049305E09DF83730D6
:10A0A00019460598FFF7A2FC049B1B78002B7FF450
:10A0B00077AE00E000BF059B1B7B002B04D005980A
:10A0C000FFF738FC00E000BF0FB05DF804FB00BFF5
:10A0D00000B583B001900198FFF754FB0346184682
:10A0E00003B05DF804FB00B58BB001900091019BBB
:10A0F0001B8A043B0793009A079B1344DA1C079BB7
:10A10000B2FBF3F38DF81B300198FFF797FB059036
:10A11000059B002B01D1002338E0059B00221A711A
:10A12000059B01225A71079B9AB2059BDA80059B19
:10A1300009939DF81B30013B0493099B019A1A6017
:10A14000002308931DE00198FFF778FB0390039B21
:10A15000002B0ED0059B5B790133DAB2059B5A7157
:10A16000099B039A1A60039B019A1A60039B099347
:10A1700004E0059800F00EF8002307E0089B013387
:10A180000893089A049B9A42DDD3059B18460BB0AE
:10A190005DF804FB00B58BB00190019B0793079B12
:10A1A0005B798DF81B30019B08939DF81B30013BB8
:10A1B00005930023099305E0089B1B680893099BFE
:10A1C00001330993099A059B9A42F5D3089B1B68B2
:10A1D0000493019B0893002309930BE0089B1B68E1
:10A1E000039308990498FFF771FB039B0893099B5D
:10A1F000013309939DF81B30099A9A42EED300BFB0
:10A2000000BF0BB05DF804FB00B585B00190019B69
:10A210000393039B043301211846FFF735FA00BF6F
:10A2200005B05DF804FB00B587B00190019B059374
:10A23000059B043301211846FFF73EFA03460393BA
:10A2400003AB0493049B1B78002B02D10198FFF70A
:10A25000A1FF00BF07B05DF804FB000000B591B09E
:10A260000390029101920093039B002B03D1434979
:10A27000B62005F067FA039B0993039B0F93099B94
:10A28000DB881A46099B5B7903FB02F3043B0893C6
:10A29000009A089B9A4203D33849C42005F052FA29
:10A2A000099BDB880793009B1A1D079BB2FBF3F306
:10A2B0000E93009B0433079AB3FBF2F2079901FB5C
:10A2C00002F29B1A0D93019B1A68009B1344089A93
:10A2D0009A4203D2089A009BD31A01E0019B1B68A3
:10A2E0000C93019B0C9A1A6005E00F9B1B680F935F
:10A2F0000E9B013B0E930E9B002BF6D100230B937C
:10A30000079A0D9BD31A0A930A9A0C9B934228BF73
:10A3100013460A932AE0029A0B9B134406930F9A62
:10A320000D9B1344043305939DF84830002B05D052
:10A330000A9A0599069809F058FE04E00A9A0699C7
:10A34000059809F052FE00230D930F9B1B680F9395
:10A350000C9A0A9BD31A0C930B9A0A9B13440B93E7
:10A36000079A0C9B934228BF13460A930C9B002B21
:10A37000D1D100BF00BF11B05DF804FB744F0300E2
:10A3800000B589B00590049103920293039B079353
:10A3900007AA00230093029B04990598FFF75EFF2C
:10A3A000079B039A9A4203D00349F62005F0CAF9A5
:10A3B00000BF09B05DF804FB744F030000B589B01D
:10A3C0000590049103920293039B079307AA01232C
:10A3D0000093029B04990598FFF740FF079B039A9F
:10A3E0009A4204D004494FF4807005F0ABF900BFE5
:10A3F00009B05DF804FB00BF744F030082B0034650
:10A400008DF807309DF8073003F01F0206499DF9CB
:10A4100007305B09012000FA02F2603341F8232083
:10A4200000BF02B0704700BF00E100E000B583B09C
:10A430000190019B002B03D10649722005F082F99F
:10A44000019B00221A60BFF35F8F00BF00BF03B003
:10A450005DF804FB2C50030041DF704700BF184635
:10A4600000B585B000238DF803300DF103031846C5
:10A47000FEF73EFBF1EE103A0193019B0393039B21
:10A4800023F09F030293029BE1EE103A00BFBFF35B
:10A490005F8F00BF2620FFF7B1FF9DF803301846FD
:10A4A000FEF73CFB039B03F00703002B03D004499A
:10A4B0007D2005F047F900BF05B05DF804FB00BF43
:10A4C0007050030008B5064B00221A700548FFF7CC
:10A4D000ADFF0549054800F04DF80023184608BDBA
:10A4E000CC320020C8320020D8500300D0320020E7
:10A4F00000B583B0FFF7B4FF09F0C2F90346002BA3
:10A500000ED0FFF7A9FF0190019B002B0ED0019BFD
:10A51000022B0BD007494FF4B07005F013F905E09A
:10A5200020BF00BF40BF00BF20BF00BF00BF03B0BF
:10A530005DF804FB7050030082B00190019B9B68A2
:10A5400000229A60019B9B6800221A61019B9B6814
:10A5500000225A61019B9B680022DA60019B9B6884
:10A5600000225A60019B9B6800221A6000BF02B063
:10A570007047000000B583B001900091019B002B53
:10A5800003D11049502005F0DDF8009B002B03D1CA
:10A590000C49512005F0D6F8019B009A1A60019BE6
:10A5A0001B681A68019B5A60019B5A68019B1B68D3
:10A5B0005B689A4202D1019B00225A6000BF03B03F
:10A5C0005DF804FBE450030000B583B00190019BEB
:10A5D000002B03D11449632005F0B4F8019B1B68DC
:10A5E000002B03D11049642005F0ACF8019B5B6897
:10A5F000002B14D0019B5B681A46019B1B689B686B
:10A6000013441A46019B5A60019B5A68019B1B68C0
:10A610005B689A4204D1019B00225A6000E000BFAF
:10A6200003B05DF804FB00BFE450030000B585B043
:10A6300001900091019B002B03D118493A2005F0AD
:10A6400081F8009B002B03D114493B2005F07AF8D8
:10A65000019B5B6803930FE0019B9B68039A126860
:10A66000009910469847034683F00103DBB2002BA4
:10A6700007D1039B1B680393039B1B68002BEBD143
:10A6800000E000BF039B1A68009B1A60039B009ABE
:10A690001A6000BF05B05DF804FB00BF6C510300F9
:10A6A00000B585B00190019B002B03D10C495120CE
:10A6B00005F048F8019B5B681B680393019B5B688E
:10A6C0001B68002B06D0019B5B681A68019B5B68C6
:10A6D00012681A60039B184605B05DF804FB00BFC2
:10A6E0006C51030000B583B00190019B002B03D196
:10A6F00005495D2005F026F8019B5B681B6818463C
:10A7000003B05DF804FB00BF6C51030000B585B0D9
:10A7100001900091019B002B03D11649692005F09F
:10A7200011F8009B002B03D112496A2005F00AF8AA
:10A7300000238DF80B30019B5B6803930FE0039BB4
:10A740001B68009A9A4207D1009B1A68039B1A6003
:10A7500001238DF80B3006E0039B1B680393039BDA
:10A760001B68002BEBD19DF80B30184605B05DF847
:10A7700004FB00BF6C51030000B585B00190019847
:10A7800000F00EF80390039B002B01D0039B00E028
:10A79000024B184605B05DF804FB00BFD45103001E
:10A7A00086B00190164B0593164B04931FE0049A54
:10A7B000059BD31ADB10DA0F13445B10DB00059AFC
:10A7C00013440393039B1B680293029A019B9A42D2
:10A7D00002D9039B04930AE0029A019B9A4203D296
:10A7E000039B0833059302E0039B5B6804E0059A32
:10A7F000049B9A42DBD30023184606B0704700BF83
:10A80000D4550300FC56030000B583B001900091BD
:10A81000019BDBB21846FEF7C7F8019B184603B050
:10A820005DF804FBBFF34F8F00BF074BDB6803F4F9
:10A83000E0620549054B1343CB60BFF34F8F00BF68
:10A8400000BF00BFFCE700BF00ED00E00400FA0518
:10A85000024B034A1A6000BF704700BF342B002030
:10A860000090D00308B500F069F90346002B06D02C
:10A87000A04B1B681B0AA04A03F01F03136000F0E3
:10A8800089F90346002B02D09C4B9D4A1A6000F0C8
:10A890009DF90346002B06D09A4B1B685B0B9A4A26
:10A8A00003F00703136000F0BDF90346002B05D049
:10A8B000964BDB68954A23F08073D36000F0CEF9A5
:10A8C0000346002B0ED04FF080430022C3F80C212A
:10A8D0004FF080430022C3F810214FF08043002244
:10A8E000C3F8382500F0E6F90346002B02D0884B68
:10A8F00003221A6000F0FAF90346002B0BD0854BB7
:10A9000005221A60844B01221A60844B00221A60CF
:10A91000834B3F221A6000F005FA0346002B76D0E5
:10A920004FF080537F4AD3F80434C2F820354FF0FB
:10A9300080537C4AD3F80834C2F824354FF0805352
:10A94000784AD3F80C34C2F828354FF08053754A52
:10A95000D3F81034C2F82C354FF08053714AD3F835
:10A960001434C2F830354FF080536E4AD3F818349F
:10A97000C2F834354FF080536A4AD3F81C34C2F819
:10A9800040354FF08053674AD3F82034C2F844353D
:10A990004FF08053634AD3F82434C2F848354FF05F
:10A9A0008053604AD3F82834C2F84C354FF08053B6
:10A9B0005C4AD3F82C34C2F850354FF08053594AD2
:10A9C000D3F83034C2F854354FF08053554AD3F899
:10A9D0003434C2F860354FF08053524AD3F83834DB
:10A9E000C2F864354FF080534E4AD3F83C34C2F875
:10A9F00068354FF080534B4AD3F84034C2F86C3579
:10AA00004FF08053474AD3F84434C2F8703500F011
:10AA1000A5F90346002B05D0434B1B68434A03F0BE
:10AA20004F03136000F0C6F90346002B0DD04FF022
:10AA30008043D3F8003403F00103002B05D04FF01E
:10AA400080436FF00102C3F8002400F0DFF90346F1
:10AA5000002B05D0364B1B68354A43F480631360E6
:10AA6000344BD3F88830334A43F47003C2F888304B
:10AA7000BFF34F8F00BFBFF36F8F00BF4FF01023A6
:10AA8000D3F80032002B05DB4FF01023D3F804324B
:10AA9000002B2BDA284B0122C3F8042500BF264BDC
:10AAA000D3F80034002BFAD04FF010231522C3F84E
:10AAB000002200BF204BD3F80034002BFAD04FF017
:10AAC00010231522C3F8042200BF1B4BD3F8003417
:10AAD000002BFAD0184B0022C3F8042500BF164BF8
:10AAE000D3F80034002BFAD0FFF79CFEFFF7B0FE3E
:10AAF00000BF08BD240300104035014074C007406A
:10AB00000DF0ADBA440200103C050040F0ED00E04D
:10AB1000A0050040105600408856004018560040DE
:10AB20001456004000C0004058020010E40E0040DF
:10AB30003C17004000ED00E000E00140124B1B68B4
:10AB4000DBB2062B1DD1114B1B6803F00F03002B4A
:10AB500017D10F4B1B6803F0F003302B01D10123F9
:10AB600010E00B4B1B6803F0F003402B01D10123D5
:10AB700008E0074B1B6803F0F003502B01D10123C1
:10AB800000E0002318467047E00F00F0E40F00F0EB
:10AB9000E80F00F00A4B1B68DBB2062B0DD1094B06
:10ABA0001B6803F00F03002B07D1074B1B6803F052
:10ABB000F003302B01D1012300E000231846704739
:10ABC000E00F00F0E40F00F0E80F00F0124B1B68FC
:10ABD000DBB2062B1DD1114B1B6803F00F03002BBA
:10ABE00017D10F4B1B6803F0F003302B01D1012369
:10ABF00010E00B4B1B6803F0F003402B01D1012345
:10AC000008E0074B1B6803F0F003502B01D1012330
:10AC100000E0002318467047E00F00F0E40F00F05A
:10AC2000E80F00F00A4B1B68DBB2062B0DD1094B75
:10AC30001B6803F00F03002B07D1074B1B6803F0C1
:10AC4000F003302B01D1012300E0002318467047A8
:10AC5000E00F00F0E40F00F0E80F00F0124B1B686B
:10AC6000DBB2062B1DD1114B1B6803F00F03002B29
:10AC700017D10F4B1B6803F0F003302B01D10123D8
:10AC800010E00B4B1B6803F0F003402B01D10123B4
:10AC900008E0074B1B6803F0F003502B01D10123A0
:10ACA00000E0002318467047E00F00F0E40F00F0CA
:10ACB000E80F00F00A4B1B68DBB2062B0DD1094BE5
:10ACC0001B6803F00F03002B07D1074B1B6803F031
:10ACD000F003302B01D1012300E000231846704718
:10ACE000E00F00F0E40F00F0E80F00F00A4B1B68E3
:10ACF000DBB2062B0DD1094B1B6803F00F03002BB1
:10AD000007D1074B1B6803F0F003302B01D101235F
:10AD100000E0002318467047E00F00F0E40F00F059
:10AD2000E80F00F00A4B1B68DBB2062B0DD1094B74
:10AD30001B6803F00F03002B07D1074B1B6803F0C0
:10AD4000F003502B01D1012300E000231846704787
:10AD5000E00F00F0E40F00F0E80F00F0124B1B686A
:10AD6000DBB2062B1DD1114B1B6803F00F03002B28
:10AD700017D10F4B1B6803F0F003302B01D10123D7
:10AD800010E00B4B1B6803F0F003402B01D10123B3
:10AD900008E0074B1B6803F0F003502B01D101239F
:10ADA00000E0002318467047E00F00F0E40F00F0C9
:10ADB000E80F00F0124B1B68DBB2062B1DD1114BC4
:10ADC0001B6803F00F03002B17D10F4B1B6803F018
:10ADD000F003302B01D1012310E00B4B1B6803F073
:10ADE000F003402B01D1012308E0074B1B6803F05F
:10ADF000F003502B01D1012300E0002318467047D7
:10AE0000E00F00F0E40F00F0E80F00F0064B1B68C5
:10AE1000062B05D1054B1B68062B01D1012300E051
:10AE200000231846704700BF3001001034010010A5
:10AE300000B583B00190019B1B681F2B04D9054905
:10AE400040F2CD1004F07EFC4FF0A043184603B052
:10AE50005DF804FBFC56030000B585B00190084680
:10AE600011461A4603468DF803300B468DF8023022
:10AE700013468DF8013001AB1846FFF7D9FF039058
:10AE80009DF803209DF802305B001A439DF80130C5
:10AE90009B001A439DF818301B0242EA03019DF8FB
:10AEA0001C301B04019A1943039B02F5E07243F81E
:10AEB000221000BF05B05DF804FB00B585B003901B
:10AEC0000023019300230093002301220121039812
:10AED000FFF7C2FF00BF05B05DF804FB00B585B009
:10AEE00003900B468DF80B309DF80B300022019239
:10AEF00000220092002200210398FFF7ADFF00BF5F
:10AF000005B05DF804FB00B585B0019001AB1846B3
:10AF1000FFF78EFF0390019B012202FA03F319460B
:10AF2000039800F086F800BF05B05DF804FB00B59B
:10AF300085B0019001AB1846FFF77AFF0390019BA3
:10AF4000012202FA03F31946039800F07CF800BFCF
:10AF500005B05DF804FB00B585B0019001AB184663
:10AF6000FFF766FF0390039BD3F804350293029B1F
:10AF7000DA43019B012101FA03F31A40039BC3F852
:10AF80000825019B01229A40029B1A40039BC3F8AB
:10AF90000C2500BF05B05DF804FB00B583B001903F
:10AFA0000091009B002B03D10198FFF7C0FF02E046
:10AFB0000198FFF7A8FF00BF03B05DF804FB00B5E0
:10AFC00085B0019001AB1846FFF732FF039003985C
:10AFD00000F01FF80246019B22FA03F303F001037D
:10AFE000184605B05DF804FB00B585B0019001ABD3
:10AFF0001846FFF71DFF0390039800F012F8024671
:10B00000019B22FA03F303F00103184605B05DF833
:10B0100004FB82B00190019BD3F81035184602B0B2
:10B02000704782B00190019BD3F80435184602B0F6
:10B03000704782B001900091019B009AC3F80825E7
:10B0400000BF02B0704782B001900091019B009A4E
:10B05000C3F80C2500BF02B07047000000B585B0F2
:10B060000190019B032B03D911493A2004F06AFB9C
:10B07000104A019B13441B781846FFF7B5FF03469F
:10B08000002B14BF012300238DF80F309DF80F30E3
:10B09000002B14BF01230023DBB283F00103DBB2DA
:10B0A00003F00103DBB2184605B05DF804FB00BFF6
:10B0B0002C5703008057030000B583B00190019B1B
:10B0C000032B03D90749412004F03CFB064A019BAE
:10B0D00013441B7800211846FFF75FFF00BF03B041
:10B0E0005DF804FB2C5703008057030000B583B0C4
:10B0F0000190019B032B03D90749472004F022FB51
:10B10000064A019B13441B7801211846FFF745FFAF
:10B1100000BF03B05DF804FB2C5703008057030009
:10B1200000B583B00023019305E00198FFF7DEFF2F
:10B13000019B01330193019B032BF6D900BF00BF94
:10B1400003B05DF804FB00B583B00023019305E074
:10B150000198FFF7B1FF019B01330193019B032B82
:10B16000F6D900BF00BF03B05DF804FB00B583B0A3
:10B170000190019B032B03D907495F2004F0E2FAF9
:10B18000064A019B13441B781846FFF7E4FE00BFF4
:10B1900003B05DF804FB00BF2C5703008057030089
:10B1A00000B583B00023019309E0094A019B1344D1
:10B1B0001B781846FFF781FE019B01330193019B29
:10B1C000032BF2D9FFF7ACFF00BF03B05DF804FB1F
:10B1D0008057030000B585B00190019B032B03D974
:10B1E0001149AC2004F0AEFA104A019B13441B78BD
:10B1F0001846FFF7E4FE0346002B14BF012300238B
:10B200008DF80F309DF80F30002B14BF0123002361
:10B21000DBB283F00103DBB203F00103DBB21846BB
:10B2200005B05DF804FB00BF2C57030084570300F2
:10B2300000B583B0002301930AE0094A019B13443F
:10B240001B7803211846FFF749FE019B0133019348
:10B25000019B032BF1D900BF00BF03B05DF804FBD5
:10B260008457030084B001904FF0FF330293002312
:10B2700003930DE00A4A039B13441B781A46019B73
:10B28000934202D1039B029305E0039B0133039396
:10B29000039B032BEED9029B184604B0704700BFF6
:10B2A0008457030000B583B00190019B032B03D9A1
:10B2B0000549CB2004F046FA044A019B13441B784D
:10B2C000184603B05DF804FB2C57030084570300B5
:10B2D00000B583B00190019B03F00103002B01D066
:10B2E000FFF75EFF019B03F00203002B01D0FFF785
:10B2F0009FFF00BF03B05DF804FB000082B003466F
:10B300008DF807309DF8073003F01F0206499DF9BC
:10B3100007305B09012000FA02F2203341F82320B4
:10B3200000BF02B0704700BF00E100E008B508F0C0
:10B33000A7FA034683F00103DBB2002B03D10549D2
:10B34000792004F0FFF900F035FB034B00229A70DE
:10B3500000BF08BD90570300D832002000B583B06D
:10B3600000230193144B1B78002B02D085230193FB
:10B370001CE0114B00229A600F4B00225A600E4BCA
:10B3800000221A610C4B0022DA600C4800F0D8FA57
:10B39000019008F075FA034683F00103DBB2002B3D
:10B3A00001D000F0F3FA044B01221A70019B1846F9
:10B3B00003B05DF804FB00BFD832002095B4020052
:10B3C00084B00190019B1B680393039B002B03D067
:10B3D000039B1A68019B1A60039B184604B07047D0
:10B3E00000B583B0164B1B78002B04D115494FF4E0
:10B3F000857004F0A7F9124BDB68002B04D11149CA
:10B4000040F20B1004F09EF900238DF807300DF187
:10B4100007031846FDF76CFB094BDB68013B084A44
:10B42000D360074BDB68002B01D1FFF77FFF9DF84E
:10B4300007301846FDF772FB00BF03B05DF804FB50
:10B44000D83200209057030000B585B003468DF830
:10B4500007309DF80730002B02D10C4B039301E01D
:10B460000B4B03930398FFF7ABFF0290029B002B5B
:10B4700006D0029B5B689DF8072010469847F1E7CD
:10B4800000BF00BF05B05DF804FB00BFE032002044
:10B49000E832002000B583B003468DF807309DF8F0
:10B4A0000730002B05D10A4B01225A700020FFF70C
:10B4B000CBFF9DF80730012B05D1054B01229A7077
:10B4C0000120FFF7C1FF00BF03B05DF804FB00BF20
:10B4D000D832002000B583B001900091019B002B71
:10B4E00005D1054B01225A700020FFF7ADFF00BFC8
:10B4F00003B05DF804FB00BFD832002000B585B072
:10B50000034600918DF807309DF80730032B29D0B2
:10B51000032B35DC002B02D0012B04D030E00020BF
:10B52000FFF7ECFE2DE000238DF80F300DF10F0337
:10B530001846FDF7DDFA154B1B7883F00103DBB2EB
:10B54000002B01D0FFF70AFF104BDB6801330F4AD5
:10B55000D3600E4B01229A709DF80F301846FDF70C
:10B56000DDFA0EE0094B1B78002B04D1084940F2AC
:10B57000452004F0E7F800F009FAFFF731FF00E09A
:10B5800000BF00BF05B05DF804FB00BFD83200204B
:10B590009057030000B589B001900091009B07937C
:10B5A000019B1B788DF80C30019B5B680493019B19
:10B5B0009B68DBB28DF81430019BDB680693074A69
:10B5C000079B52F823300649079A51F8221003AA24
:10B5D0001046984700BF09B05DF804FBEC3200202C
:10B5E000F032002000B589B001900091009B0793D4
:10B5F000019B1B788DF80C30019B5B680493019BC9
:10B600009B68DBB28DF81430019BDB680693074A18
:10B61000079B52F823300649079A51F8221003AAD3
:10B620001046984700BF09B05DF804FBEC320020DB
:10B63000F032002030B58FB0039002910192039B4D
:10B640001B780C9326490C9B019A41F82320029BFE
:10B650001A6924490C9B41F82320029B5B7F194601
:10B66000214A0C9B13440A461A70029B04AC1D46E7
:10B670000FCD0FC495E80F0084E80F000C9B0893D2
:10B6800000230D93039B1B781A46174B9B5C002BE2
:10B690000DD0039B181D019B002B01D0134A00E025
:10B6A000002204AB194602F079F90D9014E0039BD7
:10B6B0001B781A460C4B9B5C002B0DD1039B03F1AE
:10B6C0000C00019B002B01D0094A00E0002204ABD2
:10B6D000194601F0E7FA0D900D9B18460FB030BDEA
:10B6E000EC320020F0320020F432002095B5020048
:10B6F000E5B5020082B003468DF807309DF80730AB
:10B7000003F01F0205499DF907305B09012000FA8B
:10B7100002F241F8232000BF02B0704700E100E0D0
:10B7200082B0034600918DF807309DF90730002B59
:10B730000CDA009BDAB20C499DF8073003F00F03D6
:10B74000043B5201D2B20B441A7609E0009BDAB2F4
:10B7500006499DF907305201D2B20B4483F8002309
:10B7600000BF02B0704700BF00ED00E000E100E064
:10B7700082B00190019B1B0B5BB2184602B0704770
:10B7800000B583B003460A468DF8073013468DF89E
:10B7900006309DF80630012B03D99DF80630032BA7
:10B7A0000BD99DF80630042B03D99DF80630072BE2
:10B7B00003D908496B2003F0C5FF9DF806209DF9C9
:10B7C000073011461846FFF7ABFF00BF03B05DF826
:10B7D00004FB00BFF457030000B583B003468DF8A7
:10B7E00007309DF907301846FFF784FF00BF03B00C
:10B7F0005DF804FB82B003468DF807300F4A9DF9CF
:10B800000730002B00DA1F335B115BB252F82320A4
:10B810009DF90730594203F01F0301F01F0158BF83
:10B820004B425BB222FA03F303F00103002B14BF77
:10B8300001230023DBB2184602B0704700E100E0AC
:10B8400082B001904FF08042019BC2F8083300BFE4
:10B8500002B0704782B003468DF807309DF807307C
:10B8600003F1804301221A6000BF02B0704784B028
:10B870000346ADF80630BDF8063003F180430022E0
:10B880001A60BDF8063003F180431B680393039BE5
:10B8900000BF04B0704782B00346ADF80630BDF873
:10B8A000063003F180431B68002B14BF01230023E3
:10B8B000DBB2184602B0704782B001904FF0804270
:10B8C000019BC2F8183500BF02B070474FF08043AB
:10B8D000D3F818341B0C03F00103002B14BF012311
:10B8E0000023DBB21846704700B583B006238DF8FD
:10B8F00007304FF08040FFF73BFF03461846FFF745
:10B9000079FF034683F00103DBB2002B13D04FF025
:10B910008040FFF72DFF03461A469DF80730194671
:10B920001046FFF72DFF4FF08040FFF721FF034641
:10B930001846FFF751FF00BF03B05DF804FB00009D
:10B9400000B585B00190019B002B03D10D49A420C7
:10B9500003F0F8FE002303930B4B1B79002B02D05E
:10B960008523039308E0084A019B1360064B0122DC
:10B970001A71054B00225A71039B184605B05DF8F9
:10B9800004FB00BF2C580300F832002008B5074B19
:10B990001B79002B03D10649BD2003F0D3FEFFF72E
:10B9A000A3FF0120FFF788FF00BF08BDF832002089
:10B9B0002C58030008B50A4B1B79002B03D1094909
:10B9C000F72003F0BFFE0C20FFF744FF00BFFFF796
:10B9D0007DFF0346002BFAD100BF00BF08BD00BFAA
:10B9E000F83200202C58030008B54FF48070FFF7A0
:10B9F00052FF0346002B14D04FF48070FFF737FF3F
:10BA00000120FFF71DFF114B5B7983F00103DBB2CF
:10BA1000002B06D00D4B01225A710C4B1B680020E5
:10BA200098474FF48270FFF736FF0346002B0AD089
:10BA30004FF48270FFF71BFF0220FFF701FF034B5B
:10BA40001B680120984700BF08BD00BFF8320020E6
:10BA500082B003468DF807309DF8073003F01F02CF
:10BA600005499DF907305B09012000FA02F241F80F
:10BA7000232000BF02B0704700E100E082B003461F
:10BA800000918DF807309DF90730002B0CDA009BF0
:10BA9000DAB20C499DF8073003F00F03043B520162
:10BAA000D2B20B441A7609E0009BDAB206499DF93E
:10BAB00007305201D2B20B4483F8002300BF02B01A
:10BAC000704700BF00ED00E000E100E000B583B08A
:10BAD00003460A468DF8073013468DF806309DF868
